:1000000000000220070E00008B0B000065060000B8
:1000100000000000000000000000000000000000E0
:100020000000000000000000000000008D0B000038
:1000300000000000000000008F0B0000910B00008A
:10004000930B0000950B0000970B0000990B00002C
:100050009B0B00009D0B0000670A00009F0B000037
:10006000830C0000A10B0000A30B0000A50B0000F7
:10007000A70B0000A90B0000AB0B0000AD0B0000AC
:10008000AF0B0000B10B0000B30B0000B50B00007C
:10009000B70B0000B90B0000BB0B0000BD0B00004C
:1000A000BF0B0000C10B0000C30B0000C50B00001C
:1000B000C70B0000C90B0000E10B0000E10B0000C2
:1000C000CB0B0000CD0B0000CF0B0000D10B0000CC
:1000D000D30B0000D50B0000D70B0000D90B00009C
:1000E000DB0B0000E10B0000E10B0000E10B000066
:1000F000E10B0000DD0B0000E10B0000DF0B000056
:1001000082B08DF807009DF807000146009118287D
:1001100000F2A0820099DFE811F0190033004D00D1
:10012000670080009A00B400CE00E80001011B01C6
:1001300035014F01690182019C01B601D001EA013C
:1001400003021D02370251026B02840240F2547115
:10015000C5F200010320086040F20852C5F2000217
:100160004FF40011116040F27071C5F20001086097
:1001700040F20C51C5F200014FF08050086069E276
:1001800040F25471C5F200010320086040F20852A9
:10019000C5F200024FF40011116040F22C71C5F25B
:1001A0000001086040F20C51C5F200014FF40060FC
:1001B00008604FE240F25471C5F20001032008606C
:1001C00040F20852C5F200024FF40011116040F2F3
:1001D0007C71C5F20001086040F20C51C5F20001CB
:1001E0004FF00040086035E240F25471C5F2000162
:1001F0000320086040F20852C5F200024FF40011DB
:10020000116040F61421C5F20001086040F60C01AF
:10021000C5F20001202008601CE240F25471C5F2D2
:1002200000010320086040F20852C5F200024FF4BA
:100230000011116040F27871C5F20001086040F2CF
:100240000C51C5F200014FF08040086002E240F21C
:100250005871C5F200010320086040F20852C5F24F
:1002600000024FF48001116040F27071C5F200018C
:10027000086040F20C51C5F200014FF08050086058
:10028000E8E140F25871C5F200010320086040F235
:100290000852C5F200024FF48001116040F22C7147
:1002A000C5F20001086040F20C51C5F200014FF4A4
:1002B00000600860CEE140F25871C5F200010320F1
:1002C000086040F20852C5F200024FF4800111604C
:1002D00040F27C71C5F20001086040F20C51C5F299
:1002E00000014FF000400860B4E140F25871C5F2DF
:1002F00000010320086040F20852C5F200024FF4EA
:100300008001116040F61421C5F20001086040F63A
:100310000C01C5F20001202008609BE140F25871F9
:10032000C5F200010320086040F20852C5F2000245
:100330004FF48001116040F27871C5F2000108604D
:1003400040F20C51C5F200014FF08040086081E19D
:1003500040F23C71C5F200010320086040F20852EF
:10036000C5F200024FF40041116040F27071C5F215
:100370000001086040F20C51C5F200014FF08050BE
:10038000086067E140F23C71C5F20001032008609B
:1003900040F20852C5F200024FF40041116040F2F1
:1003A0002C71C5F20001086040F20C51C5F2000149
:1003B0004FF4006008604DE140F23C71C5F200016D
:1003C0000320086040F20852C5F200024FF40041D9
:1003D000116040F27C71C5F20001086040F20C51DE
:1003E000C5F200014FF00040086033E140F23C717B
:1003F000C5F200010320086040F20852C5F2000275
:100400004FF40041116040F61421C5F2000108606C
:1004100040F60C01C5F20001202008601AE140F20C
:100420003C71C5F200010320086040F20852C5F299
:1004300000024FF40041116040F27871C5F20001F2
:10044000086040F20C51C5F200014FF08040086096
:1004500000E140F26071C5F200010320086040F243
:100460000852C5F200024FF08071116040F27071C5
:10047000C5F20001086040F20C51C5F200014FF0D6
:1004800080500860E6E040F26071C5F20001032090
:10049000086040F20852C5F200024FF0807111600E
:1004A00040F22C71C5F20001086040F20C51C5F217
:1004B00000014FF400600860CCE040F26071C5F2CA
:1004C00000010320086040F20852C5F200024FF01C
:1004D0008071116040F27C71C5F20001086040F249
:1004E0000C51C5F200014FF000400860B2E040F24C
:1004F0006071C5F200010320086040F20852C5F2A5
:1005000000024FF08071116040F61421C5F2000125
:10051000086040F60C01C5F200012020086099E057
:1005200040F26071C5F200010320086040F20852F9
:10053000C5F200024FF08071116040F27871C5F28F
:100540000001086040F20C51C5F200014FF08040FC
:1005500008607FE040F24C71C5F2000103200860A2
:1005600040F20852C5F200024FF40021116040F23F
:100570007071C5F20001086040F20C51C5F2000133
:100580004FF08050086065E040F24C71C5F2000108
:100590000320086040F20852C5F200024FF4002127
:1005A000116040F22C71C5F20001086040F20C515C
:1005B000C5F200014FF4006008604BE040F24C715E
:1005C000C5F200010320086040F20852C5F20002A3
:1005D0004FF40021116040F27C71C5F20001086007
:1005E00040F20C51C5F200014FF00040086031E0CC
:1005F00040F24C71C5F200010320086040F208523D
:10060000C5F200024FF40021116040F61421C5F23A
:100610000001086040F60C01C5F2000120200860CE
:1006200018E040F24C71C5F200010320086040F26E
:100630000852C5F200024FF40021116040F27871B7
:10064000C5F20001086040F20C51C5F200014FF004
:080650008040086002B0704711
:0C065800240E00001E0E00002C0E0000FE
:1006640008490A68002AFED41EF0040F0CBFEFF3F9
:100674000880EFF3098042F000420A608169023188
:08068400816170472CED00E0DC
:10068C00034C206804348047FBE700F05AFBFEE77C
:04069C00500E0000FC
:1006A00080B500F0E2F878B140F20C11C4F200011C
:1006B0000020086040F21011C4F20001086040F20E
:1006C0003851C4F20001086000F000F9002800F081
:1006D000AA8040F20440C1F2000000684CF22051B0
:1006E000C4F20001086040F20840C1F20000006856
:1006F0004CF22451C4F20001086040F20C40C1F2F7
:10070000000000684CF22851C4F20001086040F279
:100710001040C1F2000000684CF22C51C4F20001FC
:10072000086040F21440C1F2000000684CF2305101
:10073000C4F20001086040F21840C1F200000068F5
:100740004CF23451C4F20001086040F21C40C1F286
:10075000000000684CF24051C4F20001086040F211
:100760002040C1F2000000684CF24451C4F2000184
:10077000086040F22440C1F2000000684CF2485189
:10078000C4F20001086040F22840C1F20000006895
:100790004CF24C51C4F20001086040F22C40C1F20E
:1007A000000000684CF25051C4F20001086040F2B1
:1007B0003040C1F2000000684CF25451C4F2000114
:1007C000086040F23440C1F2000000684CF2605111
:1007D000C4F20001086040F23840C1F20000006835
:1007E0004CF26451C4F20001086040F23C40C1F296
:1007F000000000684CF26851C4F20001086040F249
:100800004040C1F2000000684CF26C51C4F200019B
:10081000086040F24440C1F2000000684CF27051A0
:10082000C4F20001086000F082F868B140F20040B4
:10083000C4F200000068C00730B140F20041C4F2C9
:1008400000016FF0010008604EF68851CEF2000101
:10085000086840F470000860BFF34F8FBFF36F8FDC
:0A08600000F096F800F0BDF980BD2D
:10086A0084B040F23010C1F200000068029040F2F9
:10087A003410C1F200000068019002980D2819D1C5
:10088A000198009030B10098012807D000980228FA
:10089A0008D00BE001208DF80F000EE001208DF842
:1008AA000F000AE001208DF80F0006E001208DF804
:1008BA000F0002E000208DF80F009DF80F0004B031
:0208CA00704775
:1008CC0084B040F23010C1F200000068029040F297
:1008DC003410C1F200000068019002980D2819D163
:1008EC000198009030B10098012807D00098022898
:1008FC0008D00BE001208DF80F000EE001208DF8E0
:10090C000F000AE001208DF80F0006E001208DF8A1
:10091C000F0002E000208DF80F009DF80F0004B0CE
:02092C00704712
:10092E0084B040F23010C1F200000068029040F234
:10093E003410C1F200000068019002980D2819D100
:10094E000198009030B10098012807D00098022835
:10095E0008D00BE001208DF80F000EE001208DF87D
:10096E000F000AE001208DF80F0006E001208DF83F
:10097E000F0002E000208DF80F009DF80F0004B06C
:02098E007047B0
:1009900080B500F00CF848B141F20820C1F2000027
:0E09A000006840F25851C4F20001086080BDAA
:1009AE0084B040F23010C1F200000068029040F2B4
:1009BE003410C1F200000068019002980D2819D180
:1009CE000198009030B10098012807D000980228B5
:1009DE0008D00BE000208DF80F000EE000208DF8FF
:1009EE000F000AE001208DF80F0006E001208DF8BF
:1009FE000F0002E000208DF80F009DF80F0004B0EC
:020A0E0070472F
:100A100080B586B00590049103920020029040F2C8
:100A20000800C2F200000068019040F20800C2F223
:100A3000000000680199401A039988420FD200F023
:100A40003AF905980299405CFFF75AFB0298421C5C
:100A5000049992FBF1F000FB11200290E5E700F011
:060A60002AF906B080BD7A
:100A660084B046F20010C4F20000006890B346F26B
:100A76000011C4F200010020086040F21050C5F2D7
:100A86000000006800F48041012080EA91308DF872
:100A96000F009DF80F00C00750B140F20800C2F2E7
:100AA6000000006840F20401C2F20001086011E093
:100AB60040F20800C2F20000006840F20401C2F2EF
:100AC60000010968401A029040F20D01C2F20001CD
:100AD6000120087046F20410C4F20000006890B3CA
:100AE60046F20411C4F200010020086040F21050E2
:100AF600C5F20000006800F40001012080EAD15030
:100B06008DF807009DF80700C00750B140F20800B5
:100B1600C2F20000006840F20001C2F20001086063
:100B260011E040F20800C2F20000006840F2000145
:100B3600C2F200010968401A009040F20C01C2F2AC
:0A0B460000010120087004B07047A0
:100B500080B546F21051C4F2000140F60160C0F2C7
:100B60000300086046F21451C4F2000141F2017022
:100B7000C0F20300086046F20431C4F20001032011
:0A0B80000860062000F067F880BD51
:020B8A00FEE784
:020B8C00FEE782
:020B8E00FEE780
:020B9000FEE77E
:020B9200FEE77C
:020B9400FEE77A
:020B9600FEE778
:020B9800FEE776
:020B9A00FEE774
:020B9C00FEE772
:020B9E00FEE770
:020BA000FEE76E
:020BA200FEE76C
:020BA400FEE76A
:020BA600FEE768
:020BA800FEE766
:020BAA00FEE764
:020BAC00FEE762
:020BAE00FEE760
:020BB000FEE75E
:020BB200FEE75C
:020BB400FEE75A
:020BB600FEE758
:020BB800FEE756
:020BBA00FEE754
:020BBC00FEE752
:020BBE00FEE750
:020BC000FEE74E
:020BC200FEE74C
:020BC400FEE74A
:020BC600FEE748
:020BC800FEE746
:020BCA00FEE744
:020BCC00FEE742
:020BCE00FEE740
:020BD000FEE73E
:020BD200FEE73C
:020BD400FEE73A
:020BD600FEE738
:020BD800FEE736
:020BDA00FEE734
:020BDC00FEE732
:020BDE00FEE730
:020BE000FEE72E
:100BE20040F21001C2F2000149F20000C0F2D0301E
:040BF20008607047E0
:100BF60080B548F20451C4F200010020086048F2B2
:100C06000851C4F200010320086048F21051C4F2F2
:100C160000010420086048F24051C4F200014FF47C
:100C26007A70086048F20431C4F200014FF4803053
:100C36000860082000F00CF848F20C01C4F200012C
:100C46000120086048F20001C4F20001086080BD7E
:100C560081B08DF803009DF9030000280CD49DF99E
:100C6600031001F01F02012090404A094EF20011C4
:0C0C7600CEF2000141F8220001B07047EE
:100C820048F24010C4F20000006890B148F24011EE
:100C9200C4F200010020086040F20801C2F2000123
:100CA20008680130086048F20C01C4F2000101201A
:040CB200086070471F
:100CB60040F20C51C5F2000148F20000C0F2681083
:100CC600086040F20851C5F2000140F60000CDF27E
:100CD6000000086040F60801C5F200012020086007
:100CE60040F25471C5F200010220086040F25871CA
:100CF600C5F20001086040F23C71C5F200010860CF
:100D060040F26071C5F20001086040F24C71C5F214
:100D16000001086040F27071C5F20001086040F2FF
:100D26002C71C5F20001086040F27C71C5F2000129
:100D3600086040F61421C5F20001086040F278719F
:080D4600C5F2000108607047CE
:100D4E0080B582B00020019040F23871C5F20001EA
:100D5E000C20086040F25C71C5F200010860FFF7DC
:100D6E00F0FEFFF741FFFFF79FFF40F25860C0F221
:100D7E000000406840F62161C0F2000149784FF44E
:100D8E00FA72FFF73EFE40F20D00C2F2000000784C
:100D9E00C007A0B140F20D01C2F2000100200870A0
:100DAE0040F25860C0F20000006840F62161C0F2C7
:100DBE00000109784FF4FA72FFF723FE1BE040F2B0
:100DCE000C00C2F200000078C007A0B140F20C0186
:100DDE00C2F200010020087040F25860C0F200001C
:100DEE00406840F62161C0F2000149784FF4FA7272
:080DFE00FFF707FEFFE7C6E75F
:100E0600FFF74BFC4EF68850CEF20000016851F415
:080E160070010160FFF737FCD9
:030E1E000B0C0DAD
:030E2100010304C6
:010E24000CC1
:040E2800E30B0000D8
:040E2C000B110D0990
:100E3000754605480549884205D00268043003B468
:100E4000904703BCF7E72847280E00002C0E00004F
:100E5000790E0000000000200E0000008B0E000044
:100E600010000020740E000004000000310E00008D
:040E700097060000E1
:040E74000090D00317
:100E7800206861680834002200E042540139FCD53A
:020E88007047B1
:100E8A0020686168A2680C3401E08B5C8354013AE3
:040E9A00FBD57047CD
:0400000300000E07E4
:00000001FF
