:1000000000000220B3130000EF110000A907000058
:1000100000000000000000000000000000000000E0
:10002000000000000000000000000000F1110000CE
:100030000000000000000000F3110000F5110000B6
:10004000F7110000F9110000FB110000FD11000084
:10005000FF11000001120000AB0B000003120000B2
:10006000E71200000512000007120000091200004C
:100070000B1200000D1200000F1200001112000000
:1000800013120000151200001712000019120000D0
:100090001B1200001D1200001F12000021120000A0
:1000A0002312000025120000271200002912000070
:1000B0002B1200002D120000451200004512000016
:1000C0002F12000031120000331200003512000020
:1000D00037120000391200003B1200003D120000F0
:1000E0003F120000451200004512000045120000BA
:1000F00045120000411200004512000043120000AA
:1001000082B08DF807009DF807000146009118287D
:1001100000F2A0820099DFE811F0190033004D00D1
:10012000670080009A00B400CE00E80001011B01C6
:1001300035014F01690182019C01B601D001EA013C
:1001400003021D02370251026B02840240F2547115
:10015000C5F200010320086040F20852C5F2000217
:100160004FF40011116040F27071C5F20001086097
:1001700040F20C51C5F200014FF08050086069E276
:1001800040F25471C5F200010320086040F20852A9
:10019000C5F200024FF40011116040F22C71C5F25B
:1001A0000001086040F20C51C5F200014FF40060FC
:1001B00008604FE240F25471C5F20001032008606C
:1001C00040F20852C5F200024FF40011116040F2F3
:1001D0007C71C5F20001086040F20C51C5F20001CB
:1001E0004FF00040086035E240F25471C5F2000162
:1001F0000320086040F20852C5F200024FF40011DB
:10020000116040F61421C5F20001086040F60C01AF
:10021000C5F20001202008601CE240F25471C5F2D2
:1002200000010320086040F20852C5F200024FF4BA
:100230000011116040F27871C5F20001086040F2CF
:100240000C51C5F200014FF08040086002E240F21C
:100250005871C5F200010320086040F20852C5F24F
:1002600000024FF48001116040F27071C5F200018C
:10027000086040F20C51C5F200014FF08050086058
:10028000E8E140F25871C5F200010320086040F235
:100290000852C5F200024FF48001116040F22C7147
:1002A000C5F20001086040F20C51C5F200014FF4A4
:1002B00000600860CEE140F25871C5F200010320F1
:1002C000086040F20852C5F200024FF4800111604C
:1002D00040F27C71C5F20001086040F20C51C5F299
:1002E00000014FF000400860B4E140F25871C5F2DF
:1002F00000010320086040F20852C5F200024FF4EA
:100300008001116040F61421C5F20001086040F63A
:100310000C01C5F20001202008609BE140F25871F9
:10032000C5F200010320086040F20852C5F2000245
:100330004FF48001116040F27871C5F2000108604D
:1003400040F20C51C5F200014FF08040086081E19D
:1003500040F23C71C5F200010320086040F20852EF
:10036000C5F200024FF40041116040F27071C5F215
:100370000001086040F20C51C5F200014FF08050BE
:10038000086067E140F23C71C5F20001032008609B
:1003900040F20852C5F200024FF40041116040F2F1
:1003A0002C71C5F20001086040F20C51C5F2000149
:1003B0004FF4006008604DE140F23C71C5F200016D
:1003C0000320086040F20852C5F200024FF40041D9
:1003D000116040F27C71C5F20001086040F20C51DE
:1003E000C5F200014FF00040086033E140F23C717B
:1003F000C5F200010320086040F20852C5F2000275
:100400004FF40041116040F61421C5F2000108606C
:1004100040F60C01C5F20001202008601AE140F20C
:100420003C71C5F200010320086040F20852C5F299
:1004300000024FF40041116040F27871C5F20001F2
:10044000086040F20C51C5F200014FF08040086096
:1004500000E140F26071C5F200010320086040F243
:100460000852C5F200024FF08071116040F27071C5
:10047000C5F20001086040F20C51C5F200014FF0D6
:1004800080500860E6E040F26071C5F20001032090
:10049000086040F20852C5F200024FF0807111600E
:1004A00040F22C71C5F20001086040F20C51C5F217
:1004B00000014FF400600860CCE040F26071C5F2CA
:1004C00000010320086040F20852C5F200024FF01C
:1004D0008071116040F27C71C5F20001086040F249
:1004E0000C51C5F200014FF000400860B2E040F24C
:1004F0006071C5F200010320086040F20852C5F2A5
:1005000000024FF08071116040F61421C5F2000125
:10051000086040F60C01C5F200012020086099E057
:1005200040F26071C5F200010320086040F20852F9
:10053000C5F200024FF08071116040F27871C5F28F
:100540000001086040F20C51C5F200014FF08040FC
:1005500008607FE040F24C71C5F2000103200860A2
:1005600040F20852C5F200024FF40021116040F23F
:100570007071C5F20001086040F20C51C5F2000133
:100580004FF08050086065E040F24C71C5F2000108
:100590000320086040F20852C5F200024FF4002127
:1005A000116040F22C71C5F20001086040F20C515C
:1005B000C5F200014FF4006008604BE040F24C715E
:1005C000C5F200010320086040F20852C5F20002A3
:1005D0004FF40021116040F27C71C5F20001086007
:1005E00040F20C51C5F200014FF00040086031E0CC
:1005F00040F24C71C5F200010320086040F208523D
:10060000C5F200024FF40021116040F61421C5F23A
:100610000001086040F60C01C5F2000120200860CE
:1006200018E040F24C71C5F200010320086040F26E
:100630000852C5F200024FF40021116040F27871B7
:10064000C5F20001086040F20C51C5F200014FF004
:080650008040086002B0704711
:1006580043140000CA130000901400009414000012
:10066800A0140000AC140000CD130000F313000028
:0806780044140000D813000037
:10068000E7130000410000004D140000420000008C
:100690005214000043000000B414000044000000A5
:1006A000031400004500000057140000460000003D
:1006B000B8140000470000005C140000480000006F
:1006C000EA13000049000000611400004A00000025
:1006D000BC1400004B000000661400004C00000039
:1006E000ED1300004D000000F01300004E0000006C
:1006F000C01400004F0000006B1400005000000008
:100700007014000051000000C414000052000000EA
:10071000C81400005300000005140000540000003D
:10072000CC140000550000007514000056000000B5
:10073000D0140000570000007A1400005800000098
:100740007F14000059000000841400005A000000CB
:1007500007140000300000000D14000031000000FC
:1007600013140000320000001914000033000000D0
:100770001F140000340000002514000035000000A4
:100780002B14000036000000311400003700000078
:1007900037140000380000003D140000390000004C
:0807A000000000000000000051
:1007A80008490A68002AFED41EF0040F0CBFEFF3B4
:1007B8000880EFF3098042F000420A608169023143
:0807C800816170472CED00E097
:1007D000034C206804348047FBE700F0B2FBFEE7DF
:0407E000F41400000D
:1007E40080B500F0E2F878B140F20C11C4F20001D7
:1007F4000020086040F21011C4F20001086040F2C9
:100804003851C4F20001086000F000F9002800F03B
:10081400AA8040F20440C1F2000000684CF220516A
:10082400C4F20001086040F20840C1F20000006810
:100834004CF22451C4F20001086040F20C40C1F2B1
:10084400000000684CF22851C4F20001086040F234
:100854001040C1F2000000684CF22C51C4F20001B7
:10086400086040F21440C1F2000000684CF23051BC
:10087400C4F20001086040F21840C1F200000068B0
:100884004CF23451C4F20001086040F21C40C1F241
:10089400000000684CF24051C4F20001086040F2CC
:1008A4002040C1F2000000684CF24451C4F200013F
:1008B400086040F22440C1F2000000684CF2485144
:1008C400C4F20001086040F22840C1F20000006850
:1008D4004CF24C51C4F20001086040F22C40C1F2C9
:1008E400000000684CF25051C4F20001086040F26C
:1008F4003040C1F2000000684CF25451C4F20001CF
:10090400086040F23440C1F2000000684CF26051CB
:10091400C4F20001086040F23840C1F200000068EF
:100924004CF26451C4F20001086040F23C40C1F250
:10093400000000684CF26851C4F20001086040F203
:100944004040C1F2000000684CF26C51C4F2000156
:10095400086040F24440C1F2000000684CF270515B
:10096400C4F20001086000F082F868B140F200406F
:10097400C4F200000068C00730B140F20041C4F284
:1009840000016FF0010008604EF68851CEF20001BC
:10099400086840F470000860BFF34F8FBFF36F8F97
:0A09A40000F096F800F04DFC80BD55
:1009AE0084B040F23010C1F200000068029040F2B4
:1009BE003410C1F200000068019002980D2819D180
:1009CE000198009030B10098012807D000980228B5
:1009DE0008D00BE001208DF80F000EE001208DF8FD
:1009EE000F000AE001208DF80F0006E001208DF8BF
:1009FE000F0002E000208DF80F009DF80F0004B0EC
:020A0E0070472F
:100A100084B040F23010C1F200000068029040F251
:100A20003410C1F200000068019002980D2819D11D
:100A30000198009030B10098012807D00098022852
:100A400008D00BE001208DF80F000EE001208DF89A
:100A50000F000AE001208DF80F0006E001208DF85C
:100A60000F0002E000208DF80F009DF80F0004B089
:020A70007047CD
:100A720084B040F23010C1F200000068029040F2EF
:100A82003410C1F200000068019002980D2819D1BB
:100A92000198009030B10098012807D000980228F0
:100AA20008D00BE001208DF80F000EE001208DF838
:100AB2000F000AE001208DF80F0006E001208DF8FA
:100AC2000F0002E000208DF80F009DF80F0004B027
:020AD20070476B
:100AD40080B500F00CF848B141F20820C1F20000E2
:0E0AE400006840F25851C4F20001086080BD65
:100AF20084B040F23010C1F200000068029040F26F
:100B02003410C1F200000068019002980D2819D13A
:100B12000198009030B10098012807D0009802286F
:100B220008D00BE000208DF80F000EE000208DF8B9
:100B32000F000AE001208DF80F0006E001208DF879
:100B42000F0002E000208DF80F009DF80F0004B0A6
:020B52007047EA
:100B540080B586B00590049103920020029040F283
:100B64000800C2F200000068019040F20800C2F2DE
:100B7400000000680199401A039988420FD200F0DE
:100B8400CAFB05980299405CFFF7B8FA0298421C28
:100B9400049992FBF1F000FB11200290E5E700F0CC
:060BA400BAFB06B080BDA3
:100BAA0089B046F20010C4F200000068002800F084
:100BBA00B58046F20011C4F200010020086040F23C
:100BCA001050C5F20000006800F48041012080EA5C
:100BDA0091308DF823009DF82300C00780B140F2C0
:100BEA000800C2F20000006840F20401C2F20001EB
:100BFA00086040F24001C2F20001002008708DE056
:100C0A0040F20800C2F20000006840F20401C2F299
:100C1A0000010968401A079040F20000C2F2000081
:100C2A0001680020039051B340F20400C2F20000B0
:100C3A00006840F20001C2F20001096888420CD340
:100C4A0040F20400C2F20000006840F20001C2F261
:100C5A0000010968401A02900BE040F20000C2F25B
:100C6A000000006840F20401C2F200010968401A5B
:100C7A00029002990020322938BF0120039003987C
:100C8A0000F001008DF81B009DF81B00C007F0B1B1
:100C9A0040F24000C2F200000078C007B8B940F242
:100CAA004000C2F200000121017040F20402C2F2C7
:100CBA0000020020106040F20002C2F2000210603E
:100CCA0040F24402C2F200021170079026E007982F
:100CDA00972811D3079880084A280DD840F2400077
:100CEA00C2F200000078C00730B940F24301C2F2F4
:100CFA0000010120087011E00798B0F5967F0DD920
:100D0A0040F24000C2F200000078C00730B940F259
:100D1A003F01C2F2000101200870FFE746F2041009
:100D2A00C4F200000068002800F0B58046F2041101
:100D3A00C4F200010020086040F21050C5F2000021
:100D4A00006800F40001012080EAD1508DF81A00F1
:100D5A009DF81A00C00780B140F20800C2F20000F4
:100D6A00006840F20001C2F20001086040F240014E
:100D7A00C2F20001002008708DE040F20800C2F2C1
:100D8A000000006840F20001C2F200010968401A3E
:100D9A00059040F20400C2F20000016800200190B0
:100DAA0051B340F20000C2F20000006840F20401B0
:100DBA00C2F20001096888420CD340F20000C2F274
:100DCA000000006840F20401C2F200010968401AFA
:100DDA0000900BE040F20400C2F20000006840F20A
:100DEA000001C2F200010968401A0090009900202F
:100DFA00322938BF01200190019800F001008DF8D6
:100E0A0013009DF81300C007F0B140F24000C2F28F
:100E1A0000000078C007B8B940F24000C2F20000F2
:100E2A000121017040F20402C2F2000200201060A7
:100E3A0040F20002C2F20002106040F24402C2F222
:100E4A0000021170059026E00598972811D305989D
:100E5A0080084A280DD840F24000C2F2000000780B
:100E6A00C00730B940F24201C2F200010120087005
:100E7A0011E00598B0F5967F0DD940F24000C2F214
:100E8A0000000078C00730B940F24101C2F2000107
:0A0E9A0001200870FFE709B070475F
:100EA40086B0049000200390039940F28060C0F261
:100EB400000050F83100D8B3039940F28060C0F2CA
:100EC400000050F8310002900498019002980178D3
:100ED4000020009069B1019801780020009041B190
:100EE4000298007801990978401AB0FA80F0400914
:100EF40000900098C00730B1029801300290019828
:100F040001300190E2E70298007868B9019800780E
:100F140050B9039940F28060C0F2000000EBC100B8
:100F240000798DF8170006E0039801300390BBE7C1
:0E0F34003F208DF817009DF8170006B070479B
:100F420080B584B00020039040F23871C5F20001F0
:100F52000C20086040F25C71C5F20001086000F0EC
:100F620028F900F079F900F0D7F940F25860C0F2A0
:100F72000000406841F29C41C0F2000149784FF400
:100F8200FA72FFF7E6FD40F24300C2F20000007879
:100F9200C00758B340F24301C2F2000100200870BA
:100FA20040F25860C0F20000006841F29C41C0F279
:100FB200000109784FF4FA72FFF7CBFD40F20C0002
:100FC200C2F20000006804280FDC40F20C00C2F2FA
:100FD20000000368591C016040F23901C2F20001AD
:100FE2002E22CA54026800208854E1E040F23F00F9
:100FF200C2F200000078C00758B340F23F01C2F2CB
:1010020000010020087040F25860C0F20000406801
:1010120041F29C41C0F2000149784FF4FA72FFF7A5
:1010220098FD40F20C00C2F20000006804280FDCB8
:1010320040F20C00C2F200000368591C016040F249
:101042003901C2F200012D22CA54026800208854DC
:10105200AEE040F24200C2F200000078C007002871
:1010620043D040F24201C2F200010020087040F277
:101072005860C0F20000C06841F29C41C0F2000119
:10108200C9784FF4FA72FFF764FD40F20C00C2F225
:1010920000000068012827DB40F21000C2F20000C5
:1010A20000681F2820DC40F23900C2F200000290E2
:1010B200FFF7F7FE0299034640F21000C2F2000069
:1010C200D0F800C00CF10102026040F21802C2F234
:1010D200000202F80C3003680020D05440F20C02E7
:1010E200C2F200021060087062E040F24100C2F2F7
:1010F20000000078C00750B340F24101C2F2000183
:1011020000200190087040F25860C0F20000806830
:1011120041F29C41C0F2000189784FF4FA72FFF764
:1011220018FD019840F21001C2F20001086040F27D
:101132001801C2F20001087040F20C01C2F2000173
:10114200086040F23901C2F20001087030E040F25A
:101152004400C2F200000078C00748B340F24401E4
:10116200C2F200010020087040F21400C2F2000036
:10117200016801314AF6AB22C2F6AA2251FB02F201
:1011820002EBD27202EB4202A1EB42010160026861
:1011920040F26860C0F2000050F8220041F2FD31D6
:1011A200C0F20001895C4FF4FA72FFF7D2FCFFE74C
:0211B200E9E66C
:1011B40080B546F21051C4F2000140F60160C0F25D
:1011C4000300086046F21451C4F2000141F20170B8
:1011D400C0F20300086046F20431C4F200010320A7
:0A11E4000860062000F067F880BDE7
:0211EE00FEE71A
:0211F000FEE718
:0211F200FEE716
:0211F400FEE714
:0211F600FEE712
:0211F800FEE710
:0211FA00FEE70E
:0211FC00FEE70C
:0211FE00FEE70A
:02120000FEE707
:02120200FEE705
:02120400FEE703
:02120600FEE701
:02120800FEE7FF
:02120A00FEE7FD
:02120C00FEE7FB
:02120E00FEE7F9
:02121000FEE7F7
:02121200FEE7F5
:02121400FEE7F3
:02121600FEE7F1
:02121800FEE7EF
:02121A00FEE7ED
:02121C00FEE7EB
:02121E00FEE7E9
:02122000FEE7E7
:02122200FEE7E5
:02122400FEE7E3
:02122600FEE7E1
:02122800FEE7DF
:02122A00FEE7DD
:02122C00FEE7DB
:02122E00FEE7D9
:02123000FEE7D7
:02123200FEE7D5
:02123400FEE7D3
:02123600FEE7D1
:02123800FEE7CF
:02123A00FEE7CD
:02123C00FEE7CB
:02123E00FEE7C9
:02124000FEE7C7
:02124200FEE7C5
:02124400FEE7C3
:1012460040F24801C2F2000149F20000C0F2D0307B
:041256000860704775
:10125A0080B548F20451C4F200010020086048F247
:10126A000851C4F200010320086048F21051C4F288
:10127A0000010420086048F24051C4F200014FF412
:10128A007A70086048F20431C4F200014FF48030E9
:10129A000860082000F00CF848F20C01C4F20001C2
:1012AA000120086048F20001C4F20001086080BD14
:1012BA0081B08DF803009DF9030000280CD49DF934
:1012CA00031001F01F02012090404A094EF200115A
:0C12DA00CEF2000141F8220001B0704784
:1012E60048F24010C4F20000006890B148F2401184
:1012F600C4F200010020086040F20801C2F20001B9
:1013060008680130086048F20C01C4F200010120AF
:0413160008607047B4
:10131A0040F20C51C5F2000148F20000C0F2681018
:10132A00086040F20851C5F2000140F60000CDF213
:10133A000000086040F60801C5F20001202008609C
:10134A0040F25471C5F200010220086040F258715F
:10135A00C5F20001086040F23C71C5F20001086064
:10136A0040F26071C5F20001086040F24C71C5F2AA
:10137A000001086040F27071C5F20001086040F295
:10138A002C71C5F20001086040F27C71C5F20001BF
:10139A00086040F61421C5F20001086040F2787135
:0813AA00C5F200010860704764
:1013B200FFF717FA4EF68850CEF20000016851F49A
:0813C20070010160FFF703FA5E
:0313CA000B0C0DFC
:0B13CD00010203090C0D101516171883
:0F13D8000001020304050A0B0C0D131415161760
:0313E7002E2D00A8
:0313EA002E2E00A4
:0313ED002D2D00A3
:0313F0002D2E009F
:0A13F300010203090C0D1315161773
:0613FD000C080B0A090FA9
:021403002E00B9
:021405002D00B8
:061407002D2D2D2D2D00FE
:06140D002E2D2D2D2D00F7
:061413002E2E2D2D2D00F0
:061419002E2E2E2D2D00E9
:06141F002E2E2E2E2D00E2
:061425002E2E2E2E2E00DB
:06142B002D2E2E2E2E00D6
:061431002D2D2E2E2E00D1
:061437002D2D2D2E2E00CC
:06143D002D2D2D2D2E00C7
:011443000C9C
:091444000307080B0C0D0E121732
:05144D002D2E2E2E00E3
:051452002D2E2D2E00DF
:051457002E2E2D2E00D9
:05145C002E2E2E2E00D3
:051461002E2D2D2D00D1
:051466002E2D2E2E00CA
:05146B002E2D2D2E00C6
:051470002D2D2E2D00C2
:051475002E2E2E2D00BB
:05147A002D2E2E2D00B7
:05147F002D2E2D2D00B3
:051484002D2D2E2E00AD
:04148C004712000003
:041490000B110D0926
:08149400060B100711080D12F0
:04149C00010304083C
:0C14A00001060B1015021603080D1217B0
:0814AC000602070C11151617CA
:0414B4002D2E2E00AB
:0414B8002D2D2E00A8
:0414BC002D2E2D00A4
:0414C0002D2D2D00A1
:0414C4002E2D2E009B
:0414C8002E2E2E0096
:0414CC002E2E2D0093
:0414D0002E2D2D0090
:1014D400754605480549884205D00268043003B4BE
:1014E400904703BCF7E728478C14000090140000D1
:1014F4001D15000000000020450000002F1500000D
:10150400480000201815000004000000D514000055
:04151400DB070000F1
:041518000090D0036C
:10151C00206861680834002200E042540139FCD58F
:02152C00704706
:10152E0020686168A2680C3401E08B5C8354013A38
:04153E00FBD5704722
:04000003000013B333
:00000001FF
