:10000000000002209D100000D90E00007D060000B7
:1000100000000000000000000000000000000000E0
:10002000000000000000000000000000DB0E0000E7
:100030000000000000000000DD0E0000DF0E0000E8
:10004000E10E0000E30E0000E50E0000E70E0000E8
:10005000E90E0000EB0E00007F0A0000ED0E00002C
:10006000D10F0000EF0E0000F10E0000F30E0000B3
:10007000F50E0000F70E0000F90E0000FB0E000068
:10008000FD0E0000FF0E0000010F0000030F000036
:10009000050F0000070F0000090F00000B0F000004
:1000A0000D0F00000F0F0000110F0000130F0000D4
:1000B000150F0000170F00002F0F00002F0F00007A
:1000C000190F00001B0F00001D0F00001F0F000084
:1000D000210F0000230F0000250F0000270F000054
:1000E000290F00002F0F00002F0F00002F0F00001E
:1000F0002F0F00002B0F00002F0F00002D0F00000E
:1001000082B08DF807009DF807000146009118287D
:1001100000F2A0820099DFE811F0190033004D00D1
:10012000670080009A00B400CE00E80001011B01C6
:1001300035014F01690182019C01B601D001EA013C
:1001400003021D02370251026B02840240F2547115
:10015000C5F200010320086040F20852C5F2000217
:100160004FF40011116040F27071C5F20001086097
:1001700040F20C51C5F200014FF08050086069E276
:1001800040F25471C5F200010320086040F20852A9
:10019000C5F200024FF40011116040F22C71C5F25B
:1001A0000001086040F20C51C5F200014FF40060FC
:1001B00008604FE240F25471C5F20001032008606C
:1001C00040F20852C5F200024FF40011116040F2F3
:1001D0007C71C5F20001086040F20C51C5F20001CB
:1001E0004FF00040086035E240F25471C5F2000162
:1001F0000320086040F20852C5F200024FF40011DB
:10020000116040F61421C5F20001086040F60C01AF
:10021000C5F20001202008601CE240F25471C5F2D2
:1002200000010320086040F20852C5F200024FF4BA
:100230000011116040F27871C5F20001086040F2CF
:100240000C51C5F200014FF08040086002E240F21C
:100250005871C5F200010320086040F20852C5F24F
:1002600000024FF48001116040F27071C5F200018C
:10027000086040F20C51C5F200014FF08050086058
:10028000E8E140F25871C5F200010320086040F235
:100290000852C5F200024FF48001116040F22C7147
:1002A000C5F20001086040F20C51C5F200014FF4A4
:1002B00000600860CEE140F25871C5F200010320F1
:1002C000086040F20852C5F200024FF4800111604C
:1002D00040F27C71C5F20001086040F20C51C5F299
:1002E00000014FF000400860B4E140F25871C5F2DF
:1002F00000010320086040F20852C5F200024FF4EA
:100300008001116040F61421C5F20001086040F63A
:100310000C01C5F20001202008609BE140F25871F9
:10032000C5F200010320086040F20852C5F2000245
:100330004FF48001116040F27871C5F2000108604D
:1003400040F20C51C5F200014FF08040086081E19D
:1003500040F23C71C5F200010320086040F20852EF
:10036000C5F200024FF40041116040F27071C5F215
:100370000001086040F20C51C5F200014FF08050BE
:10038000086067E140F23C71C5F20001032008609B
:1003900040F20852C5F200024FF40041116040F2F1
:1003A0002C71C5F20001086040F20C51C5F2000149
:1003B0004FF4006008604DE140F23C71C5F200016D
:1003C0000320086040F20852C5F200024FF40041D9
:1003D000116040F27C71C5F20001086040F20C51DE
:1003E000C5F200014FF00040086033E140F23C717B
:1003F000C5F200010320086040F20852C5F2000275
:100400004FF40041116040F61421C5F2000108606C
:1004100040F60C01C5F20001202008601AE140F20C
:100420003C71C5F200010320086040F20852C5F299
:1004300000024FF40041116040F27871C5F20001F2
:10044000086040F20C51C5F200014FF08040086096
:1004500000E140F26071C5F200010320086040F243
:100460000852C5F200024FF08071116040F27071C5
:10047000C5F20001086040F20C51C5F200014FF0D6
:1004800080500860E6E040F26071C5F20001032090
:10049000086040F20852C5F200024FF0807111600E
:1004A00040F22C71C5F20001086040F20C51C5F217
:1004B00000014FF400600860CCE040F26071C5F2CA
:1004C00000010320086040F20852C5F200024FF01C
:1004D0008071116040F27C71C5F20001086040F249
:1004E0000C51C5F200014FF000400860B2E040F24C
:1004F0006071C5F200010320086040F20852C5F2A5
:1005000000024FF08071116040F61421C5F2000125
:10051000086040F60C01C5F200012020086099E057
:1005200040F26071C5F200010320086040F20852F9
:10053000C5F200024FF08071116040F27871C5F28F
:100540000001086040F20C51C5F200014FF08040FC
:1005500008607FE040F24C71C5F2000103200860A2
:1005600040F20852C5F200024FF40021116040F23F
:100570007071C5F20001086040F20C51C5F2000133
:100580004FF08050086065E040F24C71C5F2000108
:100590000320086040F20852C5F200024FF4002127
:1005A000116040F22C71C5F20001086040F20C515C
:1005B000C5F200014FF4006008604BE040F24C715E
:1005C000C5F200010320086040F20852C5F20002A3
:1005D0004FF40021116040F27C71C5F20001086007
:1005E00040F20C51C5F200014FF00040086031E0CC
:1005F00040F24C71C5F200010320086040F208523D
:10060000C5F200024FF40021116040F61421C5F23A
:100610000001086040F60C01C5F2000120200860CE
:1006200018E040F24C71C5F200010320086040F26E
:100630000852C5F200024FF40021116040F27871B7
:10064000C5F20001086040F20C51C5F200014FF004
:080650008040086002B0704711
:10065800F810000004110000B7100000D4100000CA
:08066800E5100000C2100000C3
:0C067000E4100000B4100000F4100000C2
:10067C0008490A68002AFED41EF0040F0CBFEFF3E1
:10068C000880EFF3098042F000420A608169023170
:08069C00816170472CED00E0C4
:1006A400034C206804348047FBE700F04DFBFEE771
:0406B4002C11000005
:1006B80080B500F0E2F878B140F20C11C4F2000104
:1006C8000020086040F21011C4F20001086040F2F6
:1006D8003851C4F20001086000F000F9002800F069
:1006E800AA8040F20440C1F2000000684CF2205198
:1006F800C4F20001086040F20840C1F2000000683E
:100708004CF22451C4F20001086040F20C40C1F2DE
:10071800000000684CF22851C4F20001086040F261
:100728001040C1F2000000684CF22C51C4F20001E4
:10073800086040F21440C1F2000000684CF23051E9
:10074800C4F20001086040F21840C1F200000068DD
:100758004CF23451C4F20001086040F21C40C1F26E
:10076800000000684CF24051C4F20001086040F2F9
:100778002040C1F2000000684CF24451C4F200016C
:10078800086040F22440C1F2000000684CF2485171
:10079800C4F20001086040F22840C1F2000000687D
:1007A8004CF24C51C4F20001086040F22C40C1F2F6
:1007B800000000684CF25051C4F20001086040F299
:1007C8003040C1F2000000684CF25451C4F20001FC
:1007D800086040F23440C1F2000000684CF26051F9
:1007E800C4F20001086040F23840C1F2000000681D
:1007F8004CF26451C4F20001086040F23C40C1F27E
:10080800000000684CF26851C4F20001086040F230
:100818004040C1F2000000684CF26C51C4F2000183
:10082800086040F24440C1F2000000684CF2705188
:10083800C4F20001086000F082F868B140F200409C
:10084800C4F200000068C00730B140F20041C4F2B1
:1008580000016FF0010008604EF68851CEF20001E9
:10086800086840F470000860BFF34F8FBFF36F8FC4
:0A08780000F096F800F058FB80BD78
:1008820084B040F23010C1F200000068029040F2E1
:100892003410C1F200000068019002980D2819D1AD
:1008A2000198009030B10098012807D000980228E2
:1008B20008D00BE001208DF80F000EE001208DF82A
:1008C2000F000AE001208DF80F0006E001208DF8EC
:1008D2000F0002E000208DF80F009DF80F0004B019
:0208E20070475D
:1008E40084B040F23010C1F200000068029040F27F
:1008F4003410C1F200000068019002980D2819D14B
:100904000198009030B10098012807D0009802287F
:1009140008D00BE001208DF80F000EE001208DF8C7
:100924000F000AE001208DF80F0006E001208DF889
:100934000F0002E000208DF80F009DF80F0004B0B6
:020944007047FA
:1009460084B040F23010C1F200000068029040F21C
:100956003410C1F200000068019002980D2819D1E8
:100966000198009030B10098012807D0009802281D
:1009760008D00BE001208DF80F000EE001208DF865
:100986000F000AE001208DF80F0006E001208DF827
:100996000F0002E000208DF80F009DF80F0004B054
:0209A600704798
:1009A80080B500F00CF848B141F20820C1F200000F
:0E09B800006840F25851C4F20001086080BD92
:1009C60084B040F23010C1F200000068029040F29C
:1009D6003410C1F200000068019002980D2819D168
:1009E6000198009030B10098012807D0009802289D
:1009F60008D00BE000208DF80F000EE000208DF8E7
:100A06000F000AE001208DF80F0006E001208DF8A6
:100A16000F0002E000208DF80F009DF80F0004B0D3
:020A2600704717
:100A280080B586B00590049103920020029040F2B0
:100A38000800C2F200000068019040F20800C2F20B
:100A4800000000680199401A039988420FD200F00B
:100A5800D5FA05980299405CFFF74EFB0298421CB4
:100A6800049992FBF1F000FB11200290E5E700F0F9
:060A7800C5FA06B080BDC6
:100A7E0089B046F20010C4F200000068002800F0B1
:100A8E00B58046F20011C4F200010020086040F269
:100A9E001050C5F20000006800F48041012080EA89
:100AAE0091308DF823009DF82300C00780B140F2ED
:100ABE000800C2F20000006840F20401C2F2000118
:100ACE00086040F21101C2F20001002008708DE0B2
:100ADE0040F20800C2F20000006840F20401C2F2C7
:100AEE0000010968401A079040F20000C2F20000AF
:100AFE0001680020039051B340F20400C2F20000DE
:100B0E00006840F20001C2F20001096888420CD36D
:100B1E0040F20400C2F20000006840F20001C2F28E
:100B2E0000010968401A02900BE040F20000C2F288
:100B3E000000006840F20401C2F200010968401A88
:100B4E00029002990020322938BF012003900398A9
:100B5E0000F001008DF81B009DF81B00C007F0B1DE
:100B6E0040F21100C2F200000078C007B8B940F29E
:100B7E001100C2F200000121017040F20402C2F223
:100B8E0000020020106040F20002C2F2000210606B
:100B9E0040F21402C2F200021170079026E007988C
:100BAE00972811D3079880084A280DD840F21100D3
:100BBE00C2F200000078C00730B940F21301C2F251
:100BCE0000010120087011E00798B0F5967F0DD94D
:100BDE0040F21100C2F200000078C00730B940F2B6
:100BEE001001C2F2000101200870FFE746F2041066
:100BFE00C4F200000068002800F09F8046F2041145
:100C0E00C4F200010020086040F21050C5F200004E
:100C1E00006800F40001012080EAD1508DF81A001E
:100C2E009DF81A00C00780B140F20800C2F2000021
:100C3E00006840F20001C2F20001086040F21101AA
:100C4E00C2F200010020087077E040F20800C2F204
:100C5E000000006840F20001C2F200010968401A6B
:100C6E00059040F20400C2F20000016800200190DD
:100C7E0051B340F20000C2F20000006840F20401DD
:100C8E00C2F20001096888420CD340F20000C2F2A1
:100C9E000000006840F20401C2F200010968401A27
:100CAE0000900BE040F20400C2F20000006840F237
:100CBE000001C2F200010968401A0090009900205C
:100CCE00322938BF01200190019800F001008DF803
:100CDE0013009DF81300C007F0B140F21100C2F2EC
:100CEE0000000078C007B8B940F21100C2F200004F
:100CFE000121017040F20402C2F2000200201060D5
:100D0E0040F20002C2F20002106040F21402C2F27F
:100D1E0000021170059010E00598C9280DD340F21D
:100D2E001100C2F200000078C00730B940F2120183
:0E0D3E00C2F2000101200870FFE709B0704703
:100D4C0080B582B00020019040F23871C5F20001EC
:100D5C000C20086040F25C71C5F20001086000F0E4
:100D6C0098F800F0E9F800F047F940F27060C0F232
:100D7C000000406841F2D101C0F2000149784FF403
:100D8C00FA72FFF74BFE40F21300C2F2000000783B
:100D9C00C007A0B140F21301C2F20001002008709C
:100DAC0040F27060C0F20000006841F2D101C0F264
:100DBC00000109784FF4FA72FFF730FE68E040F258
:100DCC001000C2F200000078C007A0B140F2100180
:100DDC00C2F200010020087040F27060C0F2000006
:100DEC00406841F2D101C0F2000149784FF4FA7227
:100DFC00FFF714FE4CE040F21200C2F20000007843
:100E0C00C007A0B140F21201C2F20001002008702C
:100E1C0040F27060C0F20000806841F2D101C0F273
:100E2C00000189784FF4FA72FFF7F8FD30E040F2D8
:100E3C001400C2F200000078C00748B340F214015D
:100E4C00C2F200010020087040F20C00C2F2000057
:100E5C00016801314AF6AB22C2F6AA2251FB02F21A
:100E6C0002EBD27202EB4202A1EB4201016002687A
:100E7C0040F25860C0F2000050F8220041F2DE014E
:100E8C00C0F20001895C4FF4FA72FFF7C7FDFFE76F
:020E9C0079E7F4
:100E9E0080B546F21051C4F2000140F60160C0F276
:100EAE000300086046F21451C4F2000141F20170D1
:100EBE00C0F20300086046F20431C4F200010320C0
:0A0ECE000860062000F067F880BD00
:020ED800FEE733
:020EDA00FEE731
:020EDC00FEE72F
:020EDE00FEE72D
:020EE000FEE72B
:020EE200FEE729
:020EE400FEE727
:020EE600FEE725
:020EE800FEE723
:020EEA00FEE721
:020EEC00FEE71F
:020EEE00FEE71D
:020EF000FEE71B
:020EF200FEE719
:020EF400FEE717
:020EF600FEE715
:020EF800FEE713
:020EFA00FEE711
:020EFC00FEE70F
:020EFE00FEE70D
:020F0000FEE70A
:020F0200FEE708
:020F0400FEE706
:020F0600FEE704
:020F0800FEE702
:020F0A00FEE700
:020F0C00FEE7FE
:020F0E00FEE7FC
:020F1000FEE7FA
:020F1200FEE7F8
:020F1400FEE7F6
:020F1600FEE7F4
:020F1800FEE7F2
:020F1A00FEE7F0
:020F1C00FEE7EE
:020F1E00FEE7EC
:020F2000FEE7EA
:020F2200FEE7E8
:020F2400FEE7E6
:020F2600FEE7E4
:020F2800FEE7E2
:020F2A00FEE7E0
:020F2C00FEE7DE
:020F2E00FEE7DC
:100F300040F21801C2F2000149F20000C0F2D030C4
:040F4000086070478E
:100F440080B548F20451C4F200010020086048F260
:100F54000851C4F200010320086048F21051C4F2A1
:100F640000010420086048F24051C4F200014FF42B
:100F74007A70086048F20431C4F200014FF4803002
:100F84000860082000F00CF848F20C01C4F20001DB
:100F94000120086048F20001C4F20001086080BD2D
:100FA40081B08DF803009DF9030000280CD49DF94D
:100FB400031001F01F02012090404A094EF2001173
:0C0FC400CEF2000141F8220001B070479D
:100FD00048F24010C4F20000006890B148F240119D
:100FE000C4F200010020086040F20801C2F20001D2
:100FF00008680130086048F20C01C4F200010120C9
:0410000008607047CD
:1010040040F20C51C5F2000148F20000C0F2681031
:10101400086040F20851C5F2000140F60000CDF22C
:101024000000086040F60801C5F2000120200860B5
:1010340040F25471C5F200010220086040F2587178
:10104400C5F20001086040F23C71C5F2000108607D
:1010540040F26071C5F20001086040F24C71C5F2C3
:101064000001086040F27071C5F20001086040F2AE
:101074002C71C5F20001086040F27C71C5F20001D8
:10108400086040F61421C5F20001086040F278714E
:08109400C5F20001086070477D
:10109C00FFF70CFB4EF68850CEF20000016851F4BD
:0810AC0070010160FFF7F8FA82
:0310B4000B0C0D15
:0B10B700010203090C0D10151617189C
:0F10C2000001020304050A0B0C0D131415161779
:0310D10001030414
:0A10D400010203090C0D1315161795
:0610DE000C080B0A090FCB
:0110E4000CFF
:0910E5000307080B0C0D0E121795
:0410F000310F0000BC
:0410F4000B110D09C6
:0C10F80001060B1015021603080D12175C
:081104000602070C1115161775
:10110C00754605480549884205D00268043003B489
:10111C00904703BCF7E72847F0100000F4100000DC
:10112C0055110000000000201500000067110000A0
:10113C001800002050110000040000000D110000E8
:04114C00AF060000EA
:041150000090D00338
:10115400206861680834002200E042540139FCD55B
:021164007047D2
:1011660020686168A2680C3401E08B5C8354013A04
:04117600FBD57047EE
:040000030000109D4C
:00000001FF
