:1000000000000220FD0600008D0500000101000037
:1000100000000000000000000000000000000000E0
:100020000000000000000000000000008F0500003C
:100030000000000000000000910500009305000092
:100040009505000097050000990500009B0500003C
:100050009D0500009F050000A1050000A30500000C
:10006000A5050000A7050000A9050000AB050000DC
:10007000AD050000AF050000B1050000B3050000AC
:10008000B5050000B7050000B9050000BB0500007C
:10009000BD050000BF050000C1050000C30500004C
:1000A000C5050000C7050000C9050000CB0500001C
:1000B000CD050000CF050000E7050000E7050000C2
:1000C000D1050000D3050000D5050000D7050000CC
:1000D000D9050000DB050000DD050000DF0500009C
:1000E000E1050000E7050000E7050000E705000066
:1000F000E7050000E3050000E7050000E505000056
:1001000008490A68002AFED41EF0040F0CBFEFF362
:100110000880EFF3098042F000420A6081690231F1
:08012000816170472CED00E045
:10012800034C206804348047FBE700F063FAFEE7DD
:040138003807000084
:10013C0080B500F0E2F878B140F20C11C4F2000185
:10014C000020086040F21011C4F20001086040F277
:10015C003851C4F20001086000F000F9002800F0EA
:10016C00AA8040F20440C1F2000000684CF2205119
:10017C00C4F20001086040F20840C1F200000068BF
:10018C004CF22451C4F20001086040F20C40C1F260
:10019C00000000684CF22851C4F20001086040F2E3
:1001AC001040C1F2000000684CF22C51C4F2000166
:1001BC00086040F21440C1F2000000684CF230516B
:1001CC00C4F20001086040F21840C1F2000000685F
:1001DC004CF23451C4F20001086040F21C40C1F2F0
:1001EC00000000684CF24051C4F20001086040F27B
:1001FC002040C1F2000000684CF24451C4F20001EE
:10020C00086040F22440C1F2000000684CF24851F2
:10021C00C4F20001086040F22840C1F200000068FE
:10022C004CF24C51C4F20001086040F22C40C1F277
:10023C00000000684CF25051C4F20001086040F21A
:10024C003040C1F2000000684CF25451C4F200017D
:10025C00086040F23440C1F2000000684CF260517A
:10026C00C4F20001086040F23840C1F2000000689E
:10027C004CF26451C4F20001086040F23C40C1F2FF
:10028C00000000684CF26851C4F20001086040F2B2
:10029C004040C1F2000000684CF26C51C4F2000105
:1002AC00086040F24440C1F2000000684CF270510A
:1002BC00C4F20001086000F082F868B140F200401E
:1002CC00C4F200000068C00730B140F20041C4F233
:1002DC0000016FF0010008604EF68851CEF200016B
:1002EC00086840F470000860BFF34F8FBFF36F8F46
:0A02FC0000F096F800F072F980BDE2
:1003060084B040F23010C1F200000068029040F262
:100316003410C1F200000068019002980D2819D12E
:100326000198009030B10098012807D00098022863
:1003360008D00BE001208DF80F000EE001208DF8AB
:100346000F000AE001208DF80F0006E001208DF86D
:100356000F0002E000208DF80F009DF80F0004B09A
:020366007047DE
:1003680084B040F23010C1F200000068029040F200
:100378003410C1F200000068019002980D2819D1CC
:100388000198009030B10098012807D00098022801
:1003980008D00BE001208DF80F000EE001208DF849
:1003A8000F000AE001208DF80F0006E001208DF80B
:1003B8000F0002E000208DF80F009DF80F0004B038
:0203C80070477C
:1003CA0084B040F23010C1F200000068029040F29E
:1003DA003410C1F200000068019002980D2819D16A
:1003EA000198009030B10098012807D0009802289F
:1003FA0008D00BE001208DF80F000EE001208DF8E7
:10040A000F000AE001208DF80F0006E001208DF8A8
:10041A000F0002E000208DF80F009DF80F0004B0D5
:02042A00704719
:10042C0080B500F00CF848B141F20820C1F2000090
:0E043C00006840F25851C4F20001086080BD13
:10044A0084B040F23010C1F200000068029040F21D
:10045A003410C1F200000068019002980D2819D1E9
:10046A000198009030B10098012807D0009802281E
:10047A0008D00BE000208DF80F000EE000208DF868
:10048A000F000AE001208DF80F0006E001208DF828
:10049A000F0002E000208DF80F009DF80F0004B055
:0204AA00704799
:1004AC0041F21051C4F200010520086041F20C51D8
:1004BC00C4F200010820086041F21451C4F200019A
:1004CC0040F20810C6F28030086041F21851C4F2B4
:1004DC0000010620C0F20300086041F21C51C4F276
:1004EC0000014FF0AA30086041F22451C4F200011F
:1004FC000020086041F22C51C4F20001086041F266
:10050C003051C4F200010120086041F23451C4F2B0
:10051C00000140F20310086041F23C51C4F20001AA
:10052C004FF6FF70086041F23851C4F2000140F2FE
:10053C005B60086041F20851C4F200010A200860B7
:10054C0040F20800C2F2000041F20451C4F2000172
:10055C00086041F20021C4F200010320086041F25E
:0E056C000831C4F200014FF0FF300860704704
:10057A0081B000900098411E009100B1FAE701B0E5
:02058A007047B8
:02058C00FEE788
:02058E00FEE786
:02059000FEE784
:02059200FEE782
:02059400FEE780
:02059600FEE77E
:02059800FEE77C
:02059A00FEE77A
:02059C00FEE778
:02059E00FEE776
:0205A000FEE774
:0205A200FEE772
:0205A400FEE770
:0205A600FEE76E
:0205A800FEE76C
:0205AA00FEE76A
:0205AC00FEE768
:0205AE00FEE766
:0205B000FEE764
:0205B200FEE762
:0205B400FEE760
:0205B600FEE75E
:0205B800FEE75C
:0205BA00FEE75A
:0205BC00FEE758
:0205BE00FEE756
:0205C000FEE754
:0205C200FEE752
:0205C400FEE750
:0205C600FEE74E
:0205C800FEE74C
:0205CA00FEE74A
:0205CC00FEE748
:0205CE00FEE746
:0205D000FEE744
:0205D200FEE742
:0205D400FEE740
:0205D600FEE73E
:0205D800FEE73C
:0205DA00FEE73A
:0205DC00FEE738
:0205DE00FEE736
:0205E000FEE734
:0205E200FEE732
:0205E400FEE730
:0205E600FEE72E
:1005E80040F20401C2F2000149F20000C0F2D0302A
:0405F80008607047E0
:1005FC0080B582B00020019000F01EF800F028F8C1
:10060C00FFF74EFF40F20001C2F20001487840F2C1
:10061C000802C2F20002D0700888107104205071D8
:10062C0008880130088000F029F800F041F84FF4F8
:08063C004010FFF79CFFE5E709
:100644004FF080410120086040F20010C4F2000025
:08065400006800B9F8E77047E7
:10065C0040F21851C5F200014FF08150086040F291
:10066C000C51C5F200014FF40010086040F2085123
:0C067C00C5F200014FF08050086070478C
:1006880041F21011C4F200010020086041F200019B
:10069800C4F200010120086041F21010C4F2000009
:1006A800006800B9F8E741F21011C4F20001002017
:0406B800086070471F
:1006BC0080B584B040F20851C5F2000102914FF4AC
:1006CC0000100190086040F20C51C5F2000100913D
:1006DC004FF08050039008604FF40020FFF747FF65
:1006EC00009B019A029903981A60086004B080BDBF
:1006FC00FFF71EFD4EF68850CEF20000016851F453
:08070C0070010160FFF70AFD16
:04071400E9050000F3
:10071800754605480549884205D00268043003B487
:10072800904703BCF7E728471407000018070000A4
:1007380067070000000000200200000079070000A1
:10074800040000205C0700000A00000019070000F0
:040758003301000069
:0A075C000090D00300040100000427
:10076600206861680834002200E042540139FCD553
:020776007047CA
:1007780020686168A2680C3401E08B5C8354013AFC
:04078800FBD57047E6
:04000003000006FDF6
:00000001FF
