:100000000000022069080000B105000001010000A5
:1000100000000000000000000000000000000000E0
:10002000000000000000000000000000B305000018
:100030000000000000000000B5050000B70500004A
:10004000B9050000BB050000BD050000BF050000AC
:10005000C1050000C3050000C5050000C70500007C
:10006000C9050000CB050000CD050000CF0500004C
:10007000D1050000D3050000D5050000D70500001C
:10008000D9050000DB050000DD050000DF050000EC
:10009000E1050000E3050000E5050000E7050000BC
:1000A000E9050000EB050000ED050000EF0500008C
:1000B000F1050000F30500000B0600000B06000030
:1000C000F5050000F7050000F9050000FB0500003C
:1000D000FD050000FF05000001060000030600000A
:1000E000050600000B0600000B0600000B060000D2
:1000F0000B060000070600000B06000009060000C2
:1001000008490A68002AFED41EF0040F0CBFEFF362
:100110000880EFF3098042F000420A6081690231F1
:08012000816170472CED00E045
:10012800034C206804348047FBE700F075FAFEE7CB
:04013800A408000017
:10013C0080B500F0E2F878B140F20C11C4F2000185
:10014C000020086040F21011C4F20001086040F277
:10015C003851C4F20001086000F000F9002800F0EA
:10016C00AA8040F20440C1F2000000684CF2205119
:10017C00C4F20001086040F20840C1F200000068BF
:10018C004CF22451C4F20001086040F20C40C1F260
:10019C00000000684CF22851C4F20001086040F2E3
:1001AC001040C1F2000000684CF22C51C4F2000166
:1001BC00086040F21440C1F2000000684CF230516B
:1001CC00C4F20001086040F21840C1F2000000685F
:1001DC004CF23451C4F20001086040F21C40C1F2F0
:1001EC00000000684CF24051C4F20001086040F27B
:1001FC002040C1F2000000684CF24451C4F20001EE
:10020C00086040F22440C1F2000000684CF24851F2
:10021C00C4F20001086040F22840C1F200000068FE
:10022C004CF24C51C4F20001086040F22C40C1F277
:10023C00000000684CF25051C4F20001086040F21A
:10024C003040C1F2000000684CF25451C4F200017D
:10025C00086040F23440C1F2000000684CF260517A
:10026C00C4F20001086040F23840C1F2000000689E
:10027C004CF26451C4F20001086040F23C40C1F2FF
:10028C00000000684CF26851C4F20001086040F2B2
:10029C004040C1F2000000684CF26C51C4F2000105
:1002AC00086040F24440C1F2000000684CF270510A
:1002BC00C4F20001086000F082F868B140F200401E
:1002CC00C4F200000068C00730B140F20041C4F233
:1002DC0000016FF0010008604EF68851CEF200016B
:1002EC00086840F470000860BFF34F8FBFF36F8F46
:0A02FC0000F096F800F084F980BDD0
:1003060084B040F23010C1F200000068029040F262
:100316003410C1F200000068019002980D2819D12E
:100326000198009030B10098012807D00098022863
:1003360008D00BE001208DF80F000EE001208DF8AB
:100346000F000AE001208DF80F0006E001208DF86D
:100356000F0002E000208DF80F009DF80F0004B09A
:020366007047DE
:1003680084B040F23010C1F200000068029040F200
:100378003410C1F200000068019002980D2819D1CC
:100388000198009030B10098012807D00098022801
:1003980008D00BE001208DF80F000EE001208DF849
:1003A8000F000AE001208DF80F0006E001208DF80B
:1003B8000F0002E000208DF80F009DF80F0004B038
:0203C80070477C
:1003CA0084B040F23010C1F200000068029040F29E
:1003DA003410C1F200000068019002980D2819D16A
:1003EA000198009030B10098012807D0009802289F
:1003FA0008D00BE001208DF80F000EE001208DF8E7
:10040A000F000AE001208DF80F0006E001208DF8A8
:10041A000F0002E000208DF80F009DF80F0004B0D5
:02042A00704719
:10042C0080B500F00CF848B141F20820C1F2000090
:0E043C00006840F25851C4F20001086080BD13
:10044A0084B040F23010C1F200000068029040F21D
:10045A003410C1F200000068019002980D2819D1E9
:10046A000198009030B10098012807D0009802281E
:10047A0008D00BE000208DF80F000EE000208DF868
:10048A000F000AE001208DF80F0006E001208DF828
:10049A000F0002E000208DF80F009DF80F0004B055
:0204AA00704799
:1004AC0082B0019000910199012000FA01F140F213
:1004BC000C52C5F2000211600099884040F20851BC
:0A04CC00C5F20001086002B070479D
:1004D60082B0019000910199012000FA01F1009A81
:1004E60000FA02F2114340F21852C5F200021160FE
:1004F600019900FA01F140F20852C5F200021160BA
:100506000099884040F20C51C5F20001086002B023
:0205160070472C
:1005180081B000900098411E009100B1FAE701B047
:0205280070471A
:10052A0082B0009041F21011C4F20001002008606C
:10053A0041F20401C4F200010120086041F21010E6
:10054A00C4F200000068D8B90098C0B10098013818
:10055A000090A0B941F21001C4F200010120086024
:10056A0041F21010C4F20000006800B9F8E741F245
:10057A001011C4F2000100200860019010E0DDE7CC
:10058A0041F21011C4F200010020086041F200405B
:10059A00C4F2000000680138B0FA80F04009019006
:0605AA00019802B0704749
:0205B000FEE764
:0205B200FEE762
:0205B400FEE760
:0205B600FEE75E
:0205B800FEE75C
:0205BA00FEE75A
:0205BC00FEE758
:0205BE00FEE756
:0205C000FEE754
:0205C200FEE752
:0205C400FEE750
:0205C600FEE74E
:0205C800FEE74C
:0205CA00FEE74A
:0205CC00FEE748
:0205CE00FEE746
:0205D000FEE744
:0205D200FEE742
:0205D400FEE740
:0205D600FEE73E
:0205D800FEE73C
:0205DA00FEE73A
:0205DC00FEE738
:0205DE00FEE736
:0205E000FEE734
:0205E200FEE732
:0205E400FEE730
:0205E600FEE72E
:0205E800FEE72C
:0205EA00FEE72A
:0205EC00FEE728
:0205EE00FEE726
:0205F000FEE724
:0205F200FEE722
:0205F400FEE720
:0205F600FEE71E
:0205F800FEE71C
:0205FA00FEE71A
:0205FC00FEE718
:0205FE00FEE716
:02060000FEE713
:02060200FEE711
:02060400FEE70F
:02060600FEE70D
:02060800FEE70B
:02060A00FEE709
:10060C0040F20801C2F2000149F20000C0F2D03001
:04061C0008607047BB
:1006200080B58CB0002007900B9000F08FF840F25E
:100630001851C5F200014FF0815008601520059057
:100640001C210691FFF732FF05980699FFF743FF3B
:100650004FF40010FFF760FF05980699FFF726FF9B
:100660004FF48010FFF758FF07980A909C208DF8F0
:10067000270040F20000C2F20000062100F072F8EC
:100680000020FFF752FF0890089800B9F8E740F201
:100690000000C2F200008078542800D0F0E741F258
:1006A0004850C4F20000006800F07F0040428DF81E
:1006B00027000A9801300A9015201C21FFF70BFF34
:1006C0000A984CF6CD41CCF6CC414843B0F1333FCB
:1006D0001CD8152003901C210491FFF7E7FE4FF46E
:1006E00000300290FFF718FF03980499FFF7F3FE1C
:1006F0000298FFF711FF03980499FFF7D7FE0298BD
:10070000FFF70AFF03980499FFF7E5FE9DF827100D
:1007100040F20C00C2F20000C1700021017141F2F0
:100720000451C4F200010191086000F083F80199BE
:1007300040F20000C2F2000008604FF48020FFF792
:0C074000EBFE15201C21FFF7B1FE99E72D
:10074C004FF080410120086040F20010C4F200001C
:08075C00006800B9F8E77047DE
:1007640082B00190009141F21051C4F200010520C1
:10077400086041F20C51C4F200010420086041F207
:100784001451C4F2000140F20810C6F2803008602F
:10079400009840F4403041F21851C4F2000108605E
:1007A40041F21C51C4F200014FF0AA30086041F23A
:1007B4002451C4F200010020086041F22C51C4F21B
:1007C4000001086041F23051C4F2000101200860C8
:1007D40041F23451C4F2000140F20310086041F2C6
:1007E4003C51C4F200014FF6FF70086041F23851E9
:1007F400C4F2000140F25B60086041F20851C4F2A7
:1008040000010A200860019841F20451C4F2000179
:10081400086041F20831C4F200014FF0FF30086073
:1008240041F20021C4F200010320086002B07047C5
:1008340041F21011C4F200010020086041F20001ED
:10084400C4F200010120086041F21010C4F200005B
:10085400006800B9F8E741F21011C4F20001002069
:040864000860704771
:10086800FFF768FC4EF68850CEF20000016851F49C
:0808780070010160FFF754FC60
:040880000D06000061
:10088400754605480549884205D00268043003B41A
:10089400904703BCF7E7284780080000840800005D
:1008A400D30800000000002006000000E508000056
:1008B40008000020C80800000A00000085080000A5
:0408C40033010000FC
:0A08C8000090D00300044C00000073
:1008D200206861680834002200E042540139FCD5E6
:0208E20070475D
:1008E40020686168A2680C3401E08B5C8354013A8F
:0408F400FBD5704779
:040000030000086988
:00000001FF
