:10000000000002206B080000DF0600000101000074
:1000100000000000000000000000000000000000E0
:10002000000000000000000000000000E1060000E9
:100030000000000000000000E3060000E5060000EC
:10004000E7060000E9060000EB060000ED060000F0
:10005000EF060000F1060000F3060000F5060000C0
:10006000F7060000F9060000FB060000FD06000090
:10007000FF0600000107000003070000050700005D
:1000800007070000090700000B0700000D0700002C
:100090000F070000110700001307000015070000FC
:1000A00017070000190700001B0700001D070000CC
:1000B0001F07000021070000390700003907000072
:1000C000230700002507000027070000290700007C
:1000D0002B0700002D0700002F070000310700004C
:1000E0003307000039070000390700003907000016
:1000F0003907000035070000390700003707000006
:1001000008490A68002AFED41EF0040F0CBFEFF362
:100110000880EFF3098042F000420A6081690231F1
:08012000816170472CED00E045
:10012800034C206804348047FBE700F0BBF9FEE786
:04013800A808000013
:10013C0080B500F0E2F878B140F20C11C4F2000185
:10014C000020086040F21011C4F20001086040F277
:10015C003851C4F20001086000F000F9002800F0EA
:10016C00AA8040F20440C1F2000000684CF2205119
:10017C00C4F20001086040F20840C1F200000068BF
:10018C004CF22451C4F20001086040F20C40C1F260
:10019C00000000684CF22851C4F20001086040F2E3
:1001AC001040C1F2000000684CF22C51C4F2000166
:1001BC00086040F21440C1F2000000684CF230516B
:1001CC00C4F20001086040F21840C1F2000000685F
:1001DC004CF23451C4F20001086040F21C40C1F2F0
:1001EC00000000684CF24051C4F20001086040F27B
:1001FC002040C1F2000000684CF24451C4F20001EE
:10020C00086040F22440C1F2000000684CF24851F2
:10021C00C4F20001086040F22840C1F200000068FE
:10022C004CF24C51C4F20001086040F22C40C1F277
:10023C00000000684CF25051C4F20001086040F21A
:10024C003040C1F2000000684CF25451C4F200017D
:10025C00086040F23440C1F2000000684CF260517A
:10026C00C4F20001086040F23840C1F2000000689E
:10027C004CF26451C4F20001086040F23C40C1F2FF
:10028C00000000684CF26851C4F20001086040F2B2
:10029C004040C1F2000000684CF26C51C4F2000105
:1002AC00086040F24440C1F2000000684CF270510A
:1002BC00C4F20001086000F082F868B140F200401E
:1002CC00C4F200000068C00730B140F20041C4F233
:1002DC0000016FF0010008604EF68851CEF200016B
:1002EC00086840F470000860BFF34F8FBFF36F8F46
:0A02FC0000F096F800F01BFA80BD38
:1003060084B040F23010C1F200000068029040F262
:100316003410C1F200000068019002980D2819D12E
:100326000198009030B10098012807D00098022863
:1003360008D00BE001208DF80F000EE001208DF8AB
:100346000F000AE001208DF80F0006E001208DF86D
:100356000F0002E000208DF80F009DF80F0004B09A
:020366007047DE
:1003680084B040F23010C1F200000068029040F200
:100378003410C1F200000068019002980D2819D1CC
:100388000198009030B10098012807D00098022801
:1003980008D00BE001208DF80F000EE001208DF849
:1003A8000F000AE001208DF80F0006E001208DF80B
:1003B8000F0002E000208DF80F009DF80F0004B038
:0203C80070477C
:1003CA0084B040F23010C1F200000068029040F29E
:1003DA003410C1F200000068019002980D2819D16A
:1003EA000198009030B10098012807D0009802289F
:1003FA0008D00BE001208DF80F000EE001208DF8E7
:10040A000F000AE001208DF80F0006E001208DF8A8
:10041A000F0002E000208DF80F009DF80F0004B0D5
:02042A00704719
:10042C0080B500F00CF848B141F20820C1F2000090
:0E043C00006840F25851C4F20001086080BD13
:10044A0084B040F23010C1F200000068029040F21D
:10045A003410C1F200000068019002980D2819D1E9
:10046A000198009030B10098012807D0009802281E
:10047A0008D00BE000208DF80F000EE000208DF868
:10048A000F000AE001208DF80F0006E001208DF828
:10049A000F0002E000208DF80F009DF80F0004B055
:0204AA00704799
:1004AC0080B58CB0002007900B9000F04AF940F218
:1004BC001851C5F200010020C8F220000860152078
:1004CC0005901F21069100F082F80598069900F01E
:1004DC0093F84FF4001000F0B0F80598069900F06E
:1004EC0076F84FF4801000F0A8F807980A909C203A
:1004FC008DF8270040F20000C2F20000062100F047
:10050C002CF9002000F0A2F80890089800B9F8E740
:10051C0040F20000C2F200008078542800D0F0E7CE
:10052C0041F24850C4F20000006800F07F004042E5
:10053C008DF827000A9801300A9015201F2100F031
:10054C005BF80A984CF6CD41CCF6CC414843B0F15F
:10055C00333F1CD8152003901F21049100F037F86D
:10056C004FF40030029000F068F80398049900F002
:10057C0043F8029800F061F80398049900F027F80A
:10058C00029800F05AF80398049900F035F840F2FC
:10059C000C00C2F200000021C1709DF827100171FF
:1005AC0041F20451C4F200010191086000F03DF9E0
:1005BC00019940F20000C2F2000008604FF4802064
:0E05CC0000F03BF815201F2100F001F899E720
:1005DA0082B0019000910199012000FA01F140F2E4
:1005EA000C52C5F2000211600099884040F208518D
:0A05FA00C5F20001086002B070476E
:1006040082B0019000910199012000FA01F1009A51
:1006140000FA02F2114340F21852C5F200021160CE
:10062400019900FA01F140F20852C5F2000211608A
:100634000099884040F20C51C5F20001086002B0F4
:020644007047FD
:1006460081B000900098411E009100B1FAE701B018
:020656007047EB
:1006580082B0009041F21011C4F20001002008603D
:1006680041F20401C4F200010120086041F21010B7
:10067800C4F200000068D8B90098C0B100980138E9
:100688000090A0B941F21001C4F2000101200860F5
:1006980041F21010C4F20000006800B9F8E741F216
:1006A8001011C4F2000100200860019010E0DDE79D
:1006B80041F21011C4F200010020086041F200402C
:1006C800C4F2000000680138B0FA80F040090190D7
:0606D800019802B070471A
:0206DE00FEE735
:0206E000FEE733
:0206E200FEE731
:0206E400FEE72F
:0206E600FEE72D
:0206E800FEE72B
:0206EA00FEE729
:0206EC00FEE727
:0206EE00FEE725
:0206F000FEE723
:0206F200FEE721
:0206F400FEE71F
:0206F600FEE71D
:0206F800FEE71B
:0206FA00FEE719
:0206FC00FEE717
:0206FE00FEE715
:02070000FEE712
:02070200FEE710
:02070400FEE70E
:02070600FEE70C
:02070800FEE70A
:02070A00FEE708
:02070C00FEE706
:02070E00FEE704
:02071000FEE702
:02071200FEE700
:02071400FEE7FE
:02071600FEE7FC
:02071800FEE7FA
:02071A00FEE7F8
:02071C00FEE7F6
:02071E00FEE7F4
:02072000FEE7F2
:02072200FEE7F0
:02072400FEE7EE
:02072600FEE7EC
:02072800FEE7EA
:02072A00FEE7E8
:02072C00FEE7E6
:02072E00FEE7E4
:02073000FEE7E2
:02073200FEE7E0
:02073400FEE7DE
:02073600FEE7DC
:02073800FEE7DA
:10073A0040F20801C2F2000149F20000C0F2D030D2
:04074A00086070478C
:10074E004FF080410120086040F20010C4F200001A
:08075E00006800B9F8E77047DC
:1007660082B00190009141F21051C4F200010520BF
:10077600086041F20C51C4F200010420086041F205
:100786001451C4F2000140F20810C6F2803008602D
:10079600009840F4403041F21851C4F2000108605C
:1007A60041F21C51C4F200014FF0AA30086041F238
:1007B6002451C4F200010020086041F22C51C4F219
:1007C6000001086041F23051C4F2000101200860C6
:1007D60041F23451C4F2000140F20310086041F2C4
:1007E6003C51C4F200014FF6FF70086041F23851E7
:1007F600C4F2000140F25B60086041F20851C4F2A5
:1008060000010A200860019841F20451C4F2000177
:10081600086041F20831C4F200014FF0FF30086071
:1008260041F20021C4F200010320086002B07047C3
:1008360041F21011C4F200010020086041F20001EB
:10084600C4F200010120086041F21010C4F2000059
:10085600006800B9F8E741F21011C4F20001002067
:04086600086070476F
:10086A00FFF767FC4EF68850CEF20000016851F49B
:08087A0070010160FFF753FC5F
:040884003B0700002E
:10088800754605480549884205D00268043003B416
:10089800904703BCF7E72847840800008808000051
:1008A800D70800000000002006000000E90800004A
:1008B80008000020CC0800000A0000008908000099
:0408C80033010000F8
:0A08CC000090D00300045200000069
:1008D600206861680834002200E042540139FCD5E2
:0208E600704759
:1008E80020686168A2680C3401E08B5C8354013A8B
:0408F800FBD5704775
:040000030000086B86
:00000001FF
