:100000000000022049070000BD05000001010000BA
:1000100000000000000000000000000000000000E0
:10002000000000000000000000000000BF0500000C
:100030000000000000000000C1050000C305000032
:10004000C5050000C7050000C9050000CB0500007C
:10005000CD050000CF050000D1050000D30500004C
:10006000D5050000D7050000D9050000DB0500001C
:10007000DD050000DF050000E1050000E3050000EC
:10008000E5050000E7050000E9050000EB050000BC
:10009000ED050000EF050000F1050000F30500008C
:1000A000F5050000F7050000F9050000FB0500005C
:1000B000FD050000FF050000170600001706000000
:1000C0000106000003060000050600000706000008
:1000D000090600000B0600000D0600000F060000D8
:1000E00011060000170600001706000017060000A2
:1000F0001706000013060000170600001506000092
:1001000008490A68002AFED41EF0040F0CBFEFF362
:100110000880EFF3098042F000420A6081690231F1
:08012000816170472CED00E045
:10012800034C206804348047FBE700F0BBF9FEE786
:040138008407000038
:10013C0080B500F0E2F878B140F20C11C4F2000185
:10014C000020086040F21011C4F20001086040F277
:10015C003851C4F20001086000F000F9002800F0EA
:10016C00AA8040F20440C1F2000000684CF2205119
:10017C00C4F20001086040F20840C1F200000068BF
:10018C004CF22451C4F20001086040F20C40C1F260
:10019C00000000684CF22851C4F20001086040F2E3
:1001AC001040C1F2000000684CF22C51C4F2000166
:1001BC00086040F21440C1F2000000684CF230516B
:1001CC00C4F20001086040F21840C1F2000000685F
:1001DC004CF23451C4F20001086040F21C40C1F2F0
:1001EC00000000684CF24051C4F20001086040F27B
:1001FC002040C1F2000000684CF24451C4F20001EE
:10020C00086040F22440C1F2000000684CF24851F2
:10021C00C4F20001086040F22840C1F200000068FE
:10022C004CF24C51C4F20001086040F22C40C1F277
:10023C00000000684CF25051C4F20001086040F21A
:10024C003040C1F2000000684CF25451C4F200017D
:10025C00086040F23440C1F2000000684CF260517A
:10026C00C4F20001086040F23840C1F2000000689E
:10027C004CF26451C4F20001086040F23C40C1F2FF
:10028C00000000684CF26851C4F20001086040F2B2
:10029C004040C1F2000000684CF26C51C4F2000105
:1002AC00086040F24440C1F2000000684CF270510A
:1002BC00C4F20001086000F082F868B140F200401E
:1002CC00C4F200000068C00730B140F20041C4F233
:1002DC0000016FF0010008604EF68851CEF200016B
:1002EC00086840F470000860BFF34F8FBFF36F8F46
:0A02FC0000F096F800F08AF980BDCA
:1003060084B040F23010C1F200000068029040F262
:100316003410C1F200000068019002980D2819D12E
:100326000198009030B10098012807D00098022863
:1003360008D00BE001208DF80F000EE001208DF8AB
:100346000F000AE001208DF80F0006E001208DF86D
:100356000F0002E000208DF80F009DF80F0004B09A
:020366007047DE
:1003680084B040F23010C1F200000068029040F200
:100378003410C1F200000068019002980D2819D1CC
:100388000198009030B10098012807D00098022801
:1003980008D00BE001208DF80F000EE001208DF849
:1003A8000F000AE001208DF80F0006E001208DF80B
:1003B8000F0002E000208DF80F009DF80F0004B038
:0203C80070477C
:1003CA0084B040F23010C1F200000068029040F29E
:1003DA003410C1F200000068019002980D2819D16A
:1003EA000198009030B10098012807D0009802289F
:1003FA0008D00BE001208DF80F000EE001208DF8E7
:10040A000F000AE001208DF80F0006E001208DF8A8
:10041A000F0002E000208DF80F009DF80F0004B0D5
:02042A00704719
:10042C0080B500F00CF848B141F20820C1F2000090
:0E043C00006840F25851C4F20001086080BD13
:10044A0084B040F23010C1F200000068029040F21D
:10045A003410C1F200000068019002980D2819D1E9
:10046A000198009030B10098012807D0009802281E
:10047A0008D00BE000208DF80F000EE000208DF868
:10048A000F000AE001208DF80F0006E001208DF828
:10049A000F0002E000208DF80F009DF80F0004B055
:0204AA00704799
:1004AC0080B588B000200590079000F0B9F840F2B4
:1004BC001851C5F200014FF4084008600F200B21C1
:1004CC0000F037F840F20400C2F20000062100F000
:1004DC00B3F8059806900698022815DC0F200290B8
:1004EC000B21039100F03AF84FF48020049000F0B7
:1004FC0056F80298039900F01CF8049800F04FF895
:10050C00069801300690E6E700F0FEF80F20009008
:10051C000B21019100F022F84FF4002000F03FF87D
:10052C000098019900F005F84FF4C01000F037F86E
:02053C00EAE7EC
:10053E0082B0019000910199012000FA01F140F280
:10054E000C52C5F2000211600099884040F2085129
:0A055E00C5F20001086002B070470A
:1005680082B0019000910199012000FA01F1009AEE
:1005780000FA02F2114340F21852C5F2000211606B
:10058800019900FA01F140F20852C5F20002116027
:100598000099884040F20C51C5F20001086002B091
:0205A80070479A
:1005AA0081B000900098411E009100B1FAE701B0B5
:0205BA00704788
:0205BC00FEE758
:0205BE00FEE756
:0205C000FEE754
:0205C200FEE752
:0205C400FEE750
:0205C600FEE74E
:0205C800FEE74C
:0205CA00FEE74A
:0205CC00FEE748
:0205CE00FEE746
:0205D000FEE744
:0205D200FEE742
:0205D400FEE740
:0205D600FEE73E
:0205D800FEE73C
:0205DA00FEE73A
:0205DC00FEE738
:0205DE00FEE736
:0205E000FEE734
:0205E200FEE732
:0205E400FEE730
:0205E600FEE72E
:0205E800FEE72C
:0205EA00FEE72A
:0205EC00FEE728
:0205EE00FEE726
:0205F000FEE724
:0205F200FEE722
:0205F400FEE720
:0205F600FEE71E
:0205F800FEE71C
:0205FA00FEE71A
:0205FC00FEE718
:0205FE00FEE716
:02060000FEE713
:02060200FEE711
:02060400FEE70F
:02060600FEE70D
:02060800FEE70B
:02060A00FEE709
:02060C00FEE707
:02060E00FEE705
:02061000FEE703
:02061200FEE701
:02061400FEE7FF
:02061600FEE7FD
:1006180040F20001C2F2000149F20000C0F2D030FD
:0406280008607047AF
:10062C004FF080410120086040F20010C4F200003D
:08063C00006800B9F8E77047FF
:1006440082B00190009141F21051C4F200010520E2
:10065400086041F20C51C4F200010420086041F228
:100664001451C4F2000140F20810C6F28030086050
:10067400009840F4403041F21851C4F2000108607F
:1006840041F21C51C4F200014FF0AA30086041F25B
:100694002451C4F200010020086041F22C51C4F23C
:1006A4000001086041F23051C4F2000101200860E9
:1006B40041F23451C4F2000140F20310086041F2E7
:1006C4003C51C4F200014FF6FF70086041F238510A
:1006D400C4F2000140F25B60086041F20851C4F2C8
:1006E40000010A200860019841F20451C4F200019B
:1006F400086041F20831C4F200014FF0FF30086095
:1007040041F20021C4F200010320086002B07047E6
:1007140041F21011C4F200010020086041F200010E
:10072400C4F200010120086041F21010C4F200007C
:10073400006800B9F8E741F21011C4F2000100208A
:040744000860704792
:10074800FFF7F8FC4EF68850CEF20000016851F42D
:0807580070010160FFF7E4FCF1
:040760001906000076
:10076400754605480549884205D00268043003B43B
:10077400904703BCF7E728476007000064070000C0
:10078400A7070000000000209C0700000A000000EA
:080794006507000033010000BD
:0A079C000090D00300045400000098
:1007A60020686168A2680C3401E08B5C8354013ACE
:0407B600FBD57047B8
:0400000300000749A9
:00000001FF
